:100000000C942E000C9492000C9492000C9492008C
:100010000C9492000C9492000C9492000C94920018
:100020000C9492000C9492000C9492000C94920008
:100030000C9492000C9492000C9492000C949200F8
:100040000C9492000C9492000C9492000C949200E8
:100050000C9492000060007B0001320011241FBE4E
:10006000CFE5D8E0DEBFCDBFE4E5F0E040E017C06B
:10007000B591A59135912591059107FD0CC09591FC
:100080008591EF01F92FE82F05900D92A217B30784
:10009000D9F7FE0104C01D92A217B307E1F7EB35B3
:1000A000F40731F70E9458000C948700F894FFCFB2
:1000B00087B38B6087BBC09A88B3857F88BB10BC31
:1000C00083E389B988E08AB986E880BDE1E6F0E09B
:1000D00084E45D9BFECF8CB981918111FACF9AE0C7
:1000E000C09A88B3892788BBE4E7F0E081E45D9B90
:1000F000FECF8CB981918111FACF2FEF34E38CE0E0
:0E010000215030408040E1F700C00000E9CF00
:10010E00EC010E9497000E949600CE010E9498007A
:06011E00CE010E949400D6
:040124000C94000037
:040128000E945600DB
:02012C00089534
:02012E00089532
:02013000089530
:10013200444941474E4F535449432053544152542A
:0B0142000D0A00414C4956450D0A0013
:00000001FF
