:100000000C9434000C940F010C9457010C94AB0128
:100010000C9498020C9498020C9498020C949802F8
:100020000C9498020C9498020C94EC000C94980296
:100030000C9498020C9498020C9498020C949802D8
:100040000C9498020C9498020C9498020C949802C8
:100050000C9498020060009C00053E009C00AF805C
:1000600000AF00B000057A0011241FBECFE5D8E034
:10007000DEBFCDBFE4E5F0E040E017C0B591A5914B
:1000800035912591059107FD0CC095918591EF0162
:10009000F92FE82F05900D92A217B307D9F7FE01AB
:1000A00004C01D92A217B307E1F7E736F40731F752
:0C00B0000E94FC010C948D02F894FFCF1C
:1000BC005D9BFECF8CB90895CF93DF93EC018881C3
:1000CC00882331F021960E945E0089918111FBCF2B
:1000DC00DF91CF910895EF92FF921F93CF93DF930F
:1000EC0000D000D000D0CDB7DEB77C01162F80E653
:1000FC0090E00E946200111150C087E690E00E94CF
:10010C0062008EE690E00E946200E114F10421F49A
:10011C0080E30E945E003CC0FE01319610E01F5F40
:10012C009701ADECBCEC0E947E0296958795969556
:10013C00879596958795880F991F9C01220F331FE1
:10014C00220F331F820F931F9701281B390BC901F4
:10015C00805D819397010E947E027C01F694E79466
:10016C00F694E794F694E794E114F10419F0163040
:10017C00B1F602C0112361F01150E1E0F0E0EC0F98
:10018C00FD1FE10FF11D80810E945E001111F4CF63
:10019C0089E790E00E9462000DC08CE790E00E941D
:1001AC0062008EE690E00E946200E114F10409F016
:1001BC00B3CFAECF26960FB6F894DEBF0FBECDBF31
:1001CC00DF91CF911F91FF90EF9008951F921FB672
:1001DC001F9211248F939F93AF93BF938091A8008C
:1001EC009091A900A091AA00B091AB000196A11D1D
:1001FC00B11D8093A8009093A900A093AA00B0937E
:10020C00AB00BF91AF919F918F911F901FBE1F901C
:10021C0018951F921FB61F9211240F931F932F93A3
:10022C003F934F935F936F937F938F939F93AF9372
:10023C00BF938091A8009091A900A091AA00B091C1
:10024C00AB004091A4005091A5006091A600709164
:10025C00A7008C019D01041B150B260B370B083CCA
:10026C0011052105310568F021E02093AC002093A5
:10027C00AF008093A4009093A500A093A600B09328
:10028C00A700BF91AF919F918F917F916F915F91DB
:10029C004F913F912F911F910F911F901FBE1F9057
:1002AC0018951F921FB61F9211240F931F932F9313
:1002BC003F934F935F936F937F938F939F93AF93E2
:1002CC00BF938091A8009091A900A091AA00B09131
:1002DC00AB004091A0005091A1006091A2007091E0
:1002EC00A3008C019D01041B150B260B370B083C3E
:1002FC00110521053105C8F02091AC0021110DC06C
:10030C002091AD003091AE002F5F3F4F3093AE0087
:10031C002093AD0021E02093AF008093A000909338
:10032C00A100A093A200B093A300BF91AF919F91A5
:10033C008F917F916F915F914F913F912F911F9171
:10034C000F911F901FBE1F9018951F921FB61F92E2
:10035C0011240F931F932F933F934F935F936F939E
:10036C007F938F939F93AF93BF938091A8009091AD
:10037C00A900A091AA00B091AB0040919C005091B3
:10038C009D0060919E0070919F008C019D01041B4B
:10039C00150B260B370B083C110521053105B0F068
:1003AC002091AC00222319F01092AC0004C01092E2
:1003BC00AE001092AD0021E02093AF0080939C0022
:1003CC0090939D00A0939E00B0939F00BF91AF911E
:1003DC009F918F917F916F915F914F913F912F9151
:1003EC001F910F911F901FBE1F90189581B3837F93
:1003FC0081BB82B38C6082BBBA98C29A87B38B6084
:10040C0087BB88B3847F88BB10BC83E389B988E041
:10041C008AB986E880BD8BE083BF8CE78CBF89B737
:10042C00826089BF85B7826085BF85B78E7F85BFA7
:10043C0085B7886085BF85B78B7F85BF84B78F7B79
:10044C0084BF8AB7806E8ABF8BB7806E8BBF78945F
:10045C00C09A88B3857F88BB8BE890E00E946200CD
:10046C00F8948091AD009091AE006091AC00109228
:10047C00AF0078940E947100812C912C5401F89457
:10048C004091AD005091AE006091AC00C090A800BE
:10049C00D090A900E090AA00F090AB009091AF0032
:1004AC0091111092AF007894662329F0C09828B36C
:1004BC002A6028BB04C0C09A28B3257F28BB992387
:1004CC0031F0CA010E94710046015701D8CFD70103
:1004DC00C60188199909AA09BB09883E9340A10550
:1004EC00B10568F2CA010E94710046015701C7CFDD
:1004FC00A29FB001B39FC001A39F700D811D112459
:0E050C00911DB29F700D811D1124911D089547
:10051A00EC010E949D020E949C02CE010E949E0252
:06052A00CE010E949A02BE
:040530000C94000027
:040534000E945C00C5
:02053800089524
:02053A00089522
:02053C00089520
:10053E004D6F64653A20004E4F524D414C00207C69
:10054E0020436F756E743A20000D0A00454D4552DA
:10055E0047454E43592053544F5000537973746599
:0C056E006D20737461727465640D0A00E6
:01057A00017F
:00000001FF
