:100000000C9434000C9494000C94DC000C9430019B
:100010000C9457020C9457020C9457020C945702FC
:100020000C9457020C9457020C9471000C945702D4
:100030000C9457020C9457020C9457020C945702DC
:100040000C9457020C9457020C9457020C945702CC
:100050000C945702006000BE0004BC00BE00D180BA
:1000600000D100D200051A0011241FBECFE5D8E050
:10007000DEBFCDBFE4E5F0E040E017C0B591A5914B
:1000800035912591059107FD0CC095918591EF0162
:10009000F92FE82F05900D92A217B307D9F7FE01AB
:1000A00004C01D92A217B307E1F7E736F40731F752
:0C00B0000E9481010C944C02F894FFCFD8
:1000BC005D9BFECF8CB90895CF93DF93EC018881C3
:1000CC00882331F021960E945E0089918111FBCF2B
:1000DC00DF91CF9108951F921FB61F9211248F9319
:1000EC009F93AF93BF938091CA009091CB00A09146
:1000FC00CC00B091CD000196A11DB11D8093CA001A
:10010C009093CB00A093CC00B093CD00BF91AF9156
:10011C009F918F911F901FBE1F9018951F921FB615
:10012C001F9211240F931F932F933F934F935F9321
:10013C006F937F938F939F93AF93BF938091CA00DC
:10014C009091CB00A091CC00B091CD004091C60015
:10015C005091C7006091C8007091C9008C019D013D
:10016C00041B150B260B370B083C1105210531051B
:10017C0068F021E02093CE002093D1008093C6003C
:10018C009093C700A093C800B093C900BF91AF91E2
:10019C009F918F917F916F915F914F913F912F9193
:1001AC001F910F911F901FBE1F9018951F921FB685
:1001BC001F9211240F931F932F933F934F935F9391
:1001CC006F937F938F939F93AF93BF938091CA004C
:1001DC009091CB00A091CC00B091CD004091C20089
:1001EC005091C3006091C4007091C5008C019D01B9
:1001FC00041B150B260B370B083C1105210531058B
:10020C00C8F02091CE0021110DC02091CF0030916B
:10021C00D0002F5F3F4F3093D0002093CF0021E0D0
:10022C002093D1008093C2009093C300A093C4008C
:10023C00B093C500BF91AF919F918F917F916F91BA
:10024C005F914F913F912F911F910F911F901FBE66
:10025C001F9018951F921FB61F9211240F931F9376
:10026C002F933F934F935F936F937F938F939F93B2
:10027C00AF93BF938091CA009091CB00A091CC001A
:10028C00B091CD004091BE005091BF006091C00074
:10029C007091C1008C019D01041B150B260B370BB3
:1002AC00083C110521053105B0F02091CE00222328
:1002BC0019F01092CE0004C01092D0001092CF0012
:1002CC0021E02093D1008093BE009093BF00A093B7
:1002DC00C000B093C100BF91AF919F918F917F915E
:1002EC006F915F914F913F912F911F910F911F90A3
:1002FC001FBE1F901895CF93DF9300D000D000D075
:10030C00CDB7DEB781B3837F81BB82B38C6082BBF8
:10031C00BA98C29A87B38B6087BB88B3847F88BB3B
:10032C0010BC83E389B988E08AB986E880BD8BE08C
:10033C0083BF8CE78CBF89B7826089BF85B7826029
:10034C0085BF85B78E7F85BF85B7886085BF85B72C
:10035C008B7F85BF84B78F7B84BF8AB7806E8ABF43
:10036C008BB7806E8BBF789486E790E00E9462001A
:10037C000F2EF0E6CF2EF0E0DF2EF02D0F2EF7E64D
:10038C00AF2EF0E0BF2EF02D8091D1008823E1F349
:10039C00F894E090CF00F090D0008091CE001092B5
:1003AC00D1007894882359F0C09888B38A6088BBB0
:1003BC0089EA90E00E9462008A2D9B2D0AC0C09AA7
:1003CC0088B3857F88BB89EA90E00E9462008C2DFF
:1003DC009D2D0E94620080EB90E00E946200E1146F
:1003EC00F10421F480E30E945E003CC0FE013196D2
:1003FC0010E01F5F9701ADECBCEC0E943D0296959E
:10040C0087959695879596958795880F991F9C014A
:10041C00220F331F220F331F820F931F9701281BAC
:10042C00390BC901805D819397010E943D027C01CB
:10043C00F694E794F694E794F694E794E114F104B7
:10044C0019F01630B1F602C0112361F01150E1E041
:10045C00F0E0EC0FFD1FE10FF11D80810E945E00AA
:0E046C001111F4CF8BEB90E00E9462008DCF57
:10047A00A29FB001B39FC001A39F700D811D1124DB
:0E048A00911DB29F700D811D1124911D0895CA
:10049800EC010E945C020E945B02CE010E945D0298
:0604A800CE010E94590282
:0404AE000C940000AA
:0404B2000E945C0048
:0204B6000895A7
:0204B8000895A5
:0204BA000895A3
:1004BC004E4F524D414C00454D455247454E4359C8
:1004CC002053544F500041546D65676133322045C1
:1004DC00787465726E616C20496E74657272757099
:1004EC0074204576656E7420436F756E746572204A
:1004FC0053797374656D0D0A004D6F64653A200075
:0E050C00207C20436F756E743A20000D0A00AB
:01051A0001DF
:00000001FF
